:020000040800F2
:1000000088080020B5010008C1210008B51F0008BC
:10001000BD210008E1030008712300080000000072
:100020000000000000000000000000004D23000858
:10003000F103000800000000C5210008512300085A
:10004000CF010008CF010008CF010008CF01000850
:10005000CF010008CF010008CF010008CF01000840
:10006000CF010008CF010008CF010008E503000818
:10007000CF010008CF010008CF010008CF01000820
:10008000CF010008CF010008CF010008CF01000810
:10009000CF010008CF010008CF010008CF01000800
:1000A000CF01000859230008CF010008CF01000844
:1000B000CF010008CF010008CF010008CF010008E0
:1000C000CF010008CF010008CF010008CF010008D0
:1000D000CF010008CF010008CF010008CF010008C0
:1000E000CF010008CF010008CF01000800F002F89E
:1000F00000F050F814A696E8000CB244B344DA4578
:1001000001D100F047F8BAE80F000FA696E83000DA
:10011000A5EB040504EB0607AAEB0704A7F101070A
:100120004FEA15154FEA3414A4F10104AC4201D38F
:1001300000F030F813F0010F18BFFB1A43F0010371
:1001400000F001F8DBE7184770230000902300005F
:10015000103A24BF78C878C1FAD8520724BF30C8F3
:1001600030C144BF04680C60704700007047000055
:100170000023002400250026103A28BF78C1FBD8B0
:10018000520728BF30C148BF0B6070471FB51FBD65
:1001900010B510BD00F058F81146FFF7F7FF02F058
:1001A000E9F800F076F803B4FFF7F2FF03BC00F0C3
:1001B0007DF800000948804709480047FEE7FEE750
:1001C000FEE7FEE7FEE7FEE7FEE7FEE7FEE7FEE707
:1001D00004480549054A064B7047000055230008AE
:1001E000ED00000888020020880800208804002014
:1001F000880400204FF0000200B51346944696464E
:10020000203922BFA0E80C50A0E80C50B1F1200129
:10021000BFF4F7AF090728BFA0E80C5048BF0CC0D7
:100220005DF804EB890028BF40F8042B08BF704735
:1002300048BF20F8022B11F0804F18BF00F8012BA7
:100240007047704770477047754600F02BF8AE4610
:1002500005006946534620F00700854618B020B5D2
:10026000FFF7B6FFBDE820404FF000064FF0000753
:100270004FF000084FF0000BAC46ACE8C009ACE80A
:10028000C009ACE8C009ACE8C00921F007018D46FF
:10029000704710B50446AFF300802046BDE810401B
:1002A000FFF781BF00487047100000200149182067
:1002B000ABBEFEE726000200704700000146406A20
:1002C000826A12F0500F03D0006A026B0846104792
:1002D0000168826A42F400728262896801F46021D6
:1002E000B1F5602F01D1017B11B100F029B900BF38
:1002F000816A21F480718162816AC90448BF00F07B
:100300001FB9816A41F00101816200F019B9000052
:10031000406A816A41F040018162C16A41F0040192
:10032000C16200F011B90000406A00F00BB9000092
:10033000B0B582B004460020019021688A68D207D7
:100340004BD1886840F00100886040F20800C2F29A
:10035000000000684DF68361C4F21B31A0FB01016F
:10036000880C01900198A0B1019801380190019882
:1003700078B1019801380190019850B10198013885
:100380000190019828B10198013801900198002846
:10039000EAD100F05DFD21688968C9071CD10546D6
:1003A00003E000BF8068C00716D100F051FD411B7B
:1003B00020680329F6D38168C907F3D1A06A40F009
:1003C0001000A062E06A40F00100E062002084F8C2
:1003D0002400012002B0B0BD002002B0B0BD00007A
:1003E000FEE7000040F2AC00C2F2000000F0C0BA2C
:1003F00070470000EFF3108072B600BFFEE7000008
:1004000070B581B00022009290F82420012A03D117
:100410000221084601B070BD4A680123062A02EB9A
:10042000820E80F8243007D8D0F800C06FF00403A3
:100430000CF134060CE000BFD0F800C00C2A87BFD6
:100440000CF12C066FF040030CF130066FF0220324
:100450000EEB03021F23346803FA02F50B6824EA4B
:10046000050503FA02F22A433260092B03EB43022B
:100470001AD9DCF80C601E3A072589689540AE430E
:10048000914023F001023143102ACCF80C1015D111
:1004900042F20041C4F201018C4517D0816A41F05B
:1004A0002001816201210AE0DCF81030072689680A
:1004B0009640B34391401943CCF81010002100221C
:1004C00080F82420084601B070BD00BF8968090289
:1004D000F4D4DCF80810102B41F40001CCF808101B
:1004E000ECD140F20801C2F2000109684DF68362C6
:1004F000C4F21B32A1FB0212910C01EB81014900F5
:10050000009100990029D9D00099013900910099F2
:100510000029D3D000990139009100990029CDD04C
:1005200000990139009100990029C7D0009901393B
:100530000091009900294FF00001E5D1BFE70000CC
:10054000704700007047000070470000002804BF9B
:1005500001207047B0B50446806A28B121688868D8
:10056000C0070CD115E000BF0020E06284F8240031
:10057000204600F097F821688868C00709D088688D
:1005800020F00100886000F063FC21688A68D207CF
:1005900026D1A06AC0063AD4A06A41F20212904362
:1005A0000230A062E069D4E9013240EA030C531E34
:1005B000B3FA83F35D091346B2F5807F18BF2B02AF
:1005C000207D257B01284CEA45002CD135B3A56A56
:1005D00045F02005A562E56A45F00105E56222E0E7
:1005E000054602E08868C007D3D000F031FC401B0C
:1005F00021680328F6D38868C007F3D0A06A40F0CA
:100600001000A062E06A40F00100E062A06AA06A07
:1006100040F01000A0620120B0BD00BFA56903EB4F
:100620004533A3F5C0534D68B2F5807F25F4694585
:1006300043EA05034B608B684FF2FD75CFF6E17519
:1006400003EA050343EA00038B6001D0012A07D1C6
:1006500022690023CFF6F07303EB025201E000BFE2
:100660000022CB6A23F470031A43CA62896840F6F9
:10067000FE62CFF61F721140814207D10020E06276
:10068000A16A012262F30101A162B0BDA06A40F03B
:10069000100020F00200A062E06A40F00100E06279
:1006A0000120B0BD70B586B0044640F60000C4F22B
:1006B0000100216800F5E052002691420596CDE93F
:1006C0000366029602D006B070BD00BF41F2180169
:1006D000C4F202010A6842F400720A600A6802F475
:1006E00000720192019A0A6842F004020A600968E5
:1006F00001F0040101910199FF210291032103916D
:1007000002A900F097FA40F2AC050820C2F20005F9
:10071000C4F202004FF48072C5E9000605F1100032
:1007200080214FF480634FF4005C80E84C10284631
:10073000C5E9026100F0ECF9002818BFFFF75AFE86
:1007400025626C6206B070BDF0B581B0036842F6F8
:100750000006C4F20106B34205D042F20046C4F2DC
:100760000106B3420AD142F20443C4F201031B68FA
:1007700013F4702F02D0012001B0F0BD90F82430A6
:10078000012B03D1022001B0F0BD00BF0D460121B5
:10079000174680F824100646FFF7CAFD30B1002046
:1007A00086F82400012001B0F0BD00BF42F20440F1
:1007B0003168B36AC4F20100324640F60176B343B1
:1007C00000F57F7603F58073B142936244D0906A5E
:1007D00020F4801090624868400504D5906A012397
:1007E00063F30D309062936A0020DB044FF0000346
:1007F00044BFD36A23F00603D36282F82400106A50
:1008000040F2BD2340F22936C0F60003C0F60006D0
:1008100040F21134C0F60004C0E90A366FF002035A
:1008200004630B608B68144643F480738B604C3117
:100830002A463B4600F0AEF92068816801F4602248
:100840008168B2F5602F0CBF41F4A00141F4801122
:100850008160002001B0F0BD036813F4702FB6D0A2
:10086000936A43F48013936200684005B6D4BAE7F4
:10087000B0B5044690F82400012804BF0220B0BDA2
:100880000120216884F824008868C00709D088689E
:1008900020F00100886000F0DBFA21688A68D20746
:1008A0001AD1886820F480708860206A90F821103E
:1008B00002290BD100F038F8A16A48B341F0400199
:1008C000A162002184F82410B0BD00BF00200021E7
:1008D00084F82410B0BD00BF054602E08868C00758
:1008E000DFD000F0B5FA401B21680328F6D38868F2
:1008F000C007F3D0A06A40F01000A062E06A40F0A8
:100900000100E0620120002184F82410B0BD00BF86
:1009100041F2011021EA00000130A0620020002114
:1009200084F82410B0BD0000014690F82100022890
:1009300016D10868D1E90FC3026822F00E020260E6
:10094000026822F001020260012000FA03F2CCF8F2
:10095000042081F821000020002281F82020704727
:10096000042088630120002281F8202070470000C5
:1009700010B5D0E90FCE0168DCF800300A6823FA20
:100980000EF35C072AD512F0040427D00A689206F9
:1009900003D40A6822F004020A602F22C4F2020281
:1009A000914240F20402C4F202025BDD3023C4F241
:1009B0000203994272D04423C4F20203994273D0D5
:1009C0005823C4F20203994240F07A804FF4802306
:1009D0001360C16A002940F098806FE09C0727D51A
:1009E00012F0020424D00A68920606D40A6822F0A3
:1009F0000A020A60012280F821202F22C4F202029A
:100A0000914240F20402C4F202023BDD3023C4F200
:100A10000203994260D04423C4F2020399425FD09A
:100A20005823C4F20203994260D14FF4003365E0C9
:100A30001B0743D512F0080208BF10BD0A6822F058
:100A40000E020A60012101FA0EF2CCF80420816343
:100A500080F82110016B0022002980F8202054D159
:100A60002CE000BF0823C4F20203994222D01C23C9
:100A7000C4F20203994223D140231360C16A0029C2
:100A800043D11BE00823C4F2020399422CD01C235B
:100A9000C4F20203994229D120232FE04FF480634E
:100AA0001360C16A89BB09E04FF480431360C16AD7
:100AB00059BB03E004231360C16A31BB10BD00BF02
:100AC00002F168044FF08063A14208BF4FF4800335
:100AD0001360C16AC9B9F1E74FF400730EE000BFBB
:100AE0004FF400530AE000BF022307E002F168045C
:100AF0004FF00073A14208BF4FF400131360816AE6
:100B00000022002980F82020D8D0BDE810400847F6
:100B1000014600284FF0010008BF70472DE9F0435F
:100B2000D1F800C04FF6F873CBF6FD734CF6CD420A
:100B30006344CCF6CC42A3FB02236FF0030202EA2B
:100B400093020023C4F2020301F10C08C1E90F3241
:100B50000222D1E9019E98E8F00181F82120DCF819
:100B6000002043F6F0739A4342EA090242EA0E0279
:100B700022432A4332433A4342EA0802CCF8002097
:100B800000228A6381F8210081F820200020BDE83E
:100B9000F043704790F820C0BCF1010F04BF022061
:100BA0007047F0B54FF0010E80F820E090F821C0BA
:100BB000BCF1010F26D14FF0020C80F821C04FF09C
:100BC000000CC0F838C0D0E900C4C56AC66BDCF8B8
:100BD0000070102C27F00107CCF80070006C0EFAA2
:100BE00000F070600846CCF8043004BF10460A4696
:100BF000CCF80800CCF80C20DCF8000045B140F03F
:100C00000E000DE0002180F820100220F0BD00BF92
:100C100020F00400CCF80000DCF8000040F00A00EE
:100C2000CCF80000DCF8000040F00100CCF8000037
:100C30000020F0BD2DE9F04F82B00E68002E00F0CC
:100C4000FD8041F20042C4F20102042340F2004E52
:100C5000904208BF03234FF6FF7CC4F2010E0093BD
:100C600000240123C1F2100C4FF0000A4FF00009DC
:100C70004BE000BF41F20002C4F20102009F90422B
:100C800008BF022704F00C030F229A402BEA02024D
:100C900007FA03F34FEA9A051A4346F825204E68EF
:100CA00040F20C45F202DEF8082054BF22EA0802A6
:100CB00042EA0802C4F20105CEF808202A68B3020D
:100CC00054BF22EA080242EA08022A60B303DEF8AF
:100CD000042054BF22EA080242EA0802F303CEF8D5
:100CE0000420DEF800204FF0010354BF22EA08027E
:100CF00042EA0802CEF800200E680AF1010A36FA2C
:100D00000AF204F1040400F0998003FA0AFB16EADF
:100D10000B08F1D04E68664512DC122E56D8DFE87B
:100D200006F0350B4D4955555555555555555555A5
:100D300055555545510000BFD1F80C9046E000BF15
:100D40004FF6FF72C1F2210296420FDC0022C1F27F
:100D5000110296421AD00022C1F21202964215D018
:100D60000022C1F22102964210D02FE00022C1F2EF
:100D7000220296420AD00022C1F23102964205D0E8
:100D80000022C1F23202964220D100BF8A684AB1E5
:100D9000012A14BFC0F814B0C0F810B04FF0080911
:100DA00014E000BF4FF0040910E000BFCA6802F170
:100DB00004090BE04FF0000908E000BFCA6802F127
:100DC000080903E0CA6802F10C0900BF0246264682
:100DD000B8F5807F24BF0432203E17680F25B54048
:100DE00027EA050509FA06F635431560CA79D206E1
:100DF0007FF582AF41F21803C4F202031A68AEF520
:100E00007E7642F001021A601A6802F00102019235
:100E1000019A2AF0030256F802B040F60002C4F22A
:100E20000102904208D040F60042C4F20102904212
:100E30007FF420AF012725E7002723E702B0BDE8B4
:100E4000F08F0000002A08BF09040161704700000C
:100E500040F28020C2F200000068704740F20000BB
:100E600040F28021C2F20000C2F2000100780A685C
:100E7000104408607047000080B542F20000C4F2E0
:100E80000200016841F010010160032000F0A2F8A7
:100E90000F2000F005F800F027F8002080BD0000CA
:100EA00070B540F20006C2F2000640F20801327846
:100EB000C2F200014FF47A730968B3FBF2F2044600
:100EC000B1FBF2F1084600F01DFC0F2C4FF00105BC
:100ED00008D838B94FF0FF3021460022002500F035
:100EE0004DF87460284670BD82B041F21800C4F21B
:100EF00002000168012241F001010160016801F076
:100F0000010101910199416841F0805141604068BF
:100F100000F08050009000980420C4F201000168A5
:100F200062F31A61016002B070470000002848BFF8
:100F3000704700F01F01012202FA01F11C2202EAAF
:100F4000D0004EF28012CEF200028150BFF34F8FDC
:100F5000BFF36F8F70470000002848BF704700F054
:100F60001F01012202FA01F11C2202EAD0004EF216
:100F70000012CEF2000281507047000010B54EF60C
:100F80000C5CCEF2000CDCF80030C3F3022E8EF0C5
:100F90000704042C28BF0424BEF103034FF0FF3ED6
:100FA0000EFA04F438BF0023A14399400EFA03F36C
:100FB0009A43114300F00F0200F160430901043A23
:100FC00003F564436244002848BF02F10C03197022
:100FD00010BD00004EF60C51CEF200010A684FF62B
:100FE000FF031A4060F30A2242F0806040F0FD7077
:100FF000086070472DE9F04182B00446007841F264
:101000001C06C007C4F202064AD030685FEAC00876
:1010100008D4306840F080503060306800F0805074
:101020000190019847F20007C4F200073868C00534
:1010300012D4386840F480703860FFF709FF054625
:101040003868C00508D4FFF703FF401B6428F7D9B0
:10105000032002B0BDE8F081706810F4407012D037
:10106000616801F4407188420DD0706840F24042DE
:10107000C4F24222012320F4407113600023C00710
:101080001360716026D17068616820F44070084375
:10109000B8F1000F706003D4306820F080503060E9
:1010A0002068810707D556F8181CA26821F4404132
:1010B000114346F8181CC00607D556F8180CE1680D
:1010C00020F48000084346F8180C002002B0BDE868
:1010D000F08100BFFFF7BCFE054641F2883700BF34
:1010E00070688007CFD4FFF7B3FE401BB8424FF0C3
:1010F0000300F5D9EAE70000002804BF012070478B
:101100002DE9F04381B042F20008C4F2020804461F
:10111000D8F800000D4600F0070081420CD9D8F83D
:10112000000020F007002843C8F80000D8F80000AD
:1011300000F00700A8426CD1206841F20409810741
:10114000C4F2020917D5410705D5D9F8001041F4BA
:10115000E061C9F80010010705D5D9F8001041F485
:101160006051C9F80010D9F80010A26821F0F00110
:101170001143C9F80010C00742D1D8F8000000F0B0
:10118000070085420CD2D8F8000020F00700284361
:10119000C8F80000D8F8000000F00700A84238D1D5
:1011A0002068410707D5D9F80010E26821F4E06112
:1011B0001143C9F80010000708D5D9F800002169CB
:1011C00020F4605040EAC100C9F80000D9F80020BE
:1011D00002F00C00082841F20020C0F27A004DD144
:1011E00042F29C43C2F38341C0F60003595CD20330
:1011F00038D440F60010C0F23D0048433EE000BF46
:10120000606859F8041C022808D0012826D18903F7
:1012100006D4012001B0BDE8F08300BF8901F8D5F4
:10122000D9F8001021F003010843C9F80000FFF7C6
:101230000FFE064641F28837D9F80000616800F0D9
:101240000C00B0EB810F98D0FFF702FE801BB84274
:10125000F2D9032001B0BDE8F08300BF8907D8D5DB
:10126000DEE700BFD9F8002042F29A43C2F34042C1
:10127000C0F600039A5C4843B0FBF2F0D9F80010C6
:1012800042F28242C1F30311C0F60002515C40F207
:10129000080220FA01F140F20400C2F200000068E6
:1012A000C2F200021160FFF7FBFD002001B0BDE8B3
:1012B000F083000040F2080041F20401C2F2000095
:1012C000C4F202010068096842F29242C1F30221AD
:1012D000C0F60002515CC8407047000040F20800B0
:1012E00041F20401C2F20000C4F202010068096880
:1012F00042F29242C1F3C221C0F60002515CC840E2
:1013000070470000002804BF012070472DE9F0411C
:1013100082B00446007841F20006C007C4F202061B
:101320000CD0706800F00C00042840F08180306818
:10133000800303D56068002800F04681207880078C
:101340001BD5706810F00C0F09D0706800F00C000D
:10135000082840F087807068C00300F183803068FF
:10136000800703D52069012840F02E81306861692B
:1013700020F0F80040EAC10030602078000713D464
:10138000207840072CD4E569002D00F018817068A2
:1013900000F00C00082840F0A780012D40F00481E7
:1013A000012002B0BDE8F081A069002800F084802F
:1013B0000020C4F242200121C0F88014FFF748FD4C
:1013C000054600BF706A800700F1B280FFF740FD5C
:1013D000401B0228F6D9032002B0BDE8F08100BF0F
:1013E000F0695FEAC00808D4F06940F08050F0610D
:1013F000F06900F080500090009847F20007C4F2B6
:1014000000073868C00549D4386840F480703860F7
:10141000FFF71EFD054600BF3868C0053ED4FFF744
:1014200017FD401B6428F7D9032002B0BDE8F08106
:10143000706800F00C00082803D17068C0033FF505
:1014400076AF61683068002900F00C81B1F5A02FFB
:1014500000F00081B1F5803F40F01A8140F4803007
:101460001CE100BF2069002840F20000C4F24220C5
:1014700000F0888001210160FFF7EAFC054600BF0B
:10148000306880073FF572AFFFF7E2FC401B02288F
:10149000F6D9032002B0BDE8F08100BFE168306AF0
:1014A000002900F09D80052900F09280012940F07C
:1014B000AF8040F00100B1E00020C4F242200021E2
:1014C000C0F88014FFF7C4FC054600BF706A8007AF
:1014D0007FF556AFFFF7BCFC401B0228F6D903206E
:1014E00002B0BDE8F08100BF0027C4F2422700200F
:1014F0003866FFF7ADFC022D05460DD1306880013E
:1015000040F1DE80FFF7A4FC401B02284FF00300EF
:10151000F4D902B0BDE8F081306880014FD5FFF703
:1015200097FC401B02284FF00300F5D9F1E700BFFC
:1015300040F20800C2F20000006844F6D351C1F244
:101540006201A0FB0101480A019000BF00BF0198A1
:10155000411E002801913FF413AF00BF0198411EC6
:10156000002801913FF40CAF00BF0198411E0028F4
:1015700001913FF405AF00BF0198411E0028019181
:10158000E4D1FDE600210160FFF762FC054600BFE3
:10159000306880077FF5F1AEFFF75AFC401B022848
:1015A0004FF00300F4D9B4E77068216A00F4803288
:1015B0008A4209D1616A00F47010884204D1002087
:1015C00002B0BDE8F08100BF012002B0BDE8F081AB
:1015D00040F004003062306A40F001001EE000BFBD
:1015E00020F001003062306A20F004003062FFF722
:1015F0002FFC054641F28837306A800720D5FFF777
:1016000027FC401BB8424FF00300F5D981E700BF2B
:1016100020F001003062306A20F004003062FFF7F1
:1016200017FC054641F28837306A800708D4FFF777
:101630000FFC401BB842F7D9032002B0BDE8F0818F
:10164000B8F1000F3FF59FAEF06920F08050F061D7
:1016500099E600BF40F480203060306840F480306C
:101660001CE000BF20F480303060306820F480201F
:101670003060FFF7EDFB0546306880037FF55EAE16
:10168000FFF7E6FB401B64284FF00300F4D940E766
:1016900020F480303060306820F480203060FFF724
:1016A000D7FB0546306880033FF548AEFFF7D0FB17
:1016B000401B6428F6D9032002B0BDE8F08100BFCA
:1016C000206AB0F5803F05D17168A26821F400312D
:1016D000114371607168626A21F474111143084307
:1016E000706001203866FFF7B3FB04463068800164
:1016F0003FF565AFFFF7ACFB001B02284FF003007E
:10170000F4D906E7411E0020B0EB116F1CBF012089
:1017100070474EF21002CEF2000251604EF6235195
:10172000CEF20001F0230B7007219060116070472A
:10173000704700007047000090F83C20012A04BF69
:1017400002207047B0B501F108053CCDD1E900CECB
:1017500023F47C5322F470521A432EF4F0431A43BC
:101760002CF4E0431A4324F4C0431A432A43C969C2
:1017700022F48042036811435964002180F83C1030
:101780000020B0BD90F83C20012A4FF0020236D074
:1017900010B580F83D200268D2F804E0D2F808C005
:1017A0000C682EF07003234340F2FF74C4F200046F
:1017B000A24253600ADCB2F1804F13D040F20043E2
:1017C000C4F200039A420DD011E000BF42F600437C
:1017D000C4F201039A4205D040F60003C4F20003AC
:1017E0009A4204D149682CF0800319439160012189
:1017F000002280F83D1080F83C20BDE810401046E3
:101800007047000090F83D1001291CBF012070476F
:10181000022180F83D10006840F2FF72C168C4F2F6
:101820000002904241F00101C16009DCB0F1804F3B
:1018300012D040F20041C4F2000188420CD012E004
:1018400042F60041C4F20101884205D040F6000191
:10185000C4F20001884206D1816801F0070106291F
:1018600004BF00207047016841F0010101600020C1
:10187000704700007047000070B504460068C568F6
:101880000669B10716D515F0020113D06FF00201F9
:101890000161012121778069800703D02046FFF78D
:1018A000E9FF05E0204600F061F9204600F000FA6B
:1018B00000202077700719D515F0040016D0206895
:1018C0006FF00401016102212177806910F4407FEB
:1018D00004D02046FFF7CEFF06E000BF204600F010
:1018E00045F9204600F0E4F900202077300717D5AD
:1018F00015F0080014D020686FF008010161042180
:101900002177C069800703D02046FFF7B3FF05E0C9
:10191000204600F02BF9204600F0CAF9002020777D
:10192000F00619D515F0100016D020686FF01001E0
:10193000016108212177C06910F4407F04D020465E
:10194000FFF798FF06E000BF204600F00FF92046A1
:1019500000F0AEF900202077F00718BF15F0010065
:1019600002D1300609D412E020686FF00101016154
:10197000204600F09FF9300609D515F0800006D00A
:1019800020686FF0800101612046FFF7D1FE7006EC
:1019900009D515F0400006D020686FF040010161C4
:1019A000204600F089F9B00658BF70BD15F0200040
:1019B00008D021686FF0200220460A61BDE870401F
:1019C000FFF7B8BE70BD000090F83C30012B04BF9B
:1019D000022070474FEAB202032A00F2C1802DE9CB
:1019E000F041DFE802F003852F5F00BF026842F696
:1019F0000045146A136AC4F2010523F0010313625F
:101A00005368D2F818C0AA428D68D1F800E024F0DB
:101A1000020444EA05040BD1CD68D1E9056723F43B
:101A2000407324F00C0425F0040533432C433B435E
:101A30002CF0730747EA0E075360976149685163BA
:101A400084E000BF026842F60045146A136AC4F2DB
:101A5000010523F4807313625368D2F81CC0AA42B4
:101A60008D68D1F800E024F4007444EA05240FD115
:101A7000CD68D1E905872D0240F2FF4624F4406489
:101A8000B5432C4323F4405347EA080543EA0513C2
:101A90002CF0730747EA0E075360D7614968D1639A
:101AA00054E000BF026842F60046D2F820C0136A34
:101AB000C4F2010623F4805313625368D4690D689D
:101AC000D1F808E0B24204D14E6923F4804343EADE
:101AD000861324F4E64646EA05265360D6612CF4C4
:101AE0000057496847EA0E33116413622FE000BFC4
:101AF000026842F60045146A136AC4F2010523F035
:101B0000100313625368D2F818C0AA428D68D1F846
:101B100000E024F0200444EA05140FD1CD68D1E997
:101B200005876FF0400624F0C00406EA05152C4333
:101B300023F4406347EA080543EA85032CF4E647AB
:101B400047EA0E2753609761496891631462002148
:101B5000BDE8F041002280F83C200846704700BFF5
:101B60000121002280F83C200846704770470000A1
:101B7000002804BF0120704710B590F83D1031B91E
:101B8000002180F83C10044600F070F82046022145
:101B900080F83D10016840F2FF740B68C4F2000445
:101BA00042F6004CA142C4F2010C15DCB1F1804FA9
:101BB0001AD040F20042C4F20002914214D0A14275
:101BC00018DCB1F1804F1DD040F20042C4F2000297
:101BD000914217D01AE000BF614505D040F60002DF
:101BE000C4F200029142EAD1826823F070031343E9
:101BF000A142E6DD614505D040F60002C4F20002D4
:101C0000914203D1026923F440731343846923F0A2
:101C10008002D0F804E0C368224361450A60CB62C9
:101C2000C1F828E002D14269CCF8302001224A6193
:101C30000B69DB0703D00B6923F001030B6180F80C
:101C4000462080F83E2080F83F2080F8402080F831
:101C5000412080F8422080F8432080F8442080F81A
:101C6000452080F83D20002010BD0000006842F6AD
:101C70000041C4F20101884218BF704780B582B0AC
:101C800041F21800C4F202000168002241F4006130
:101C900001600068002100F40060019001981920A3
:101CA000FFF76CF9192002B0BDE88040FFF754B986
:101CB000704700007047000070470000002804BF14
:101CC0000120704710B5044690F8410028B9002063
:101CD00084F84000204600F063F8242084F8410096
:101CE0002068D4E90212C36823F40053C360036977
:101CF00023F440531A430261D4E904231143C26818
:101D0000194341F20C639A431143C1604169A269CE
:101D100021F44071114343F60002C4F201029042E3
:101D2000416103D0FFF7C6FA02E000BFFFF7D6FA21
:101D3000D4E90023192148439900B0FBF1F048F29F
:101D40001F5CC5F2EB1CA0FB0C314FF69C734909DC
:101D5000C0F6FF7301FB0300322303EB0010A0FB6E
:101D60000C03F02000EA531000EB0110C3F3431101
:101D7000084490601069202120F49040106150695F
:101D800020F02A005061D06840F40050D06000205C
:101D9000606484F8411084F84210606310BD000054
:101DA00070B586B040F60004C4F20104006804F582
:101DB0004051002688420596CDE90366029601D07F
:101DC00006B070BD41F21800C4F20200016802AD15
:101DD00041F480410160016801F480410191019961
:101DE000016841F0040101600068294600F0040028
:101DF000019001984FF4007002900220039003209C
:101E000005902046FEF716FF4FF48060CDE90206EC
:101E1000204629460496FEF70DFF06B070BD00006F
:101E20002DE9F04381B0044690F84100202809D103
:101E300000294FF0010018BF002A07D101B0BDE80A
:101E4000F08300BF022001B0BDE8F0830020606491
:101E500021201D460E4684F841001746FEF7F8FF84
:101E6000A784E784A1688146B1F5805F02D120692B
:101E700000285DD037460020E28C2168002A5DD022
:101E80006A1C24D0002D4AD0804600BF0868000696
:101E900008D4FEF7DDFFA0EB0900A8427AD821683C
:101EA000C868F3E717B117F8010B04E038F8020B24
:101EB00000276FF35F204860E08C0138E084E08CFD
:101EC0000028E3D13AE000BF0A68120609D40A6884
:101ED000120606D40A6812065CBF0A685FEA02624C
:101EE000F2D51FB117F8012B05E000BF30F8022B27
:101EF00000276FF35F224A60E28C013AE284E28CB1
:101F0000002AE4D11AE000BF30F8022B00276FF35B
:101F10005F224A60E28C013AE284E28C72B10A6884
:101F2000120635D5002FEFD017F8012BF1E700BFCF
:101F300000273046E28C2168002AA1D108684006BB
:101F40001ED42DB3681C14D1086840062AD4086832
:101F5000400627D40868400624D4086840064FF09D
:101F60000000F1D50DE000BF2068C16800684006A0
:101F700018D4FEF76DFFA0EB0900A842F4D909E0E0
:101F80000020202184F8411001B0BDE8F08300BF9B
:101F9000FEF75EFF0320202184F8411001B0BDE868
:101FA000F08300BF0020202184F8411001B0BDE87B
:101FB000F0830000FEE70000B0B584B040F27C0082
:101FC00042F20041C2F20000C4F2010100244FF4C9
:101FD0006022012504730475C261C0E900148460A5
:101FE0000561FEF7B3FA002818BFFEF703FA0720D1
:101FF000039040F27C00C2F2000001A9CDE9014546
:10200000FEF7FEF9002818BFFEF7F4F904B0B0BDE2
:1020100080B582B041F21400C4F2020001680022CF
:1020200041F0010101600068002100F00100019011
:1020300001980B20FEF7A2FF0B2002B0BDE8804004
:10204000FEF78ABF70B586B0002541F21800CDE9D1
:102050000455CDE90255C4F20200016840F600447F
:1020600041F0200101600168C4F2010401F0200187
:10207000019101990168002241F0040101600168A9
:1020800040F6F35601F0040101910199016841F015
:1020900008010160006840F6F35100F0080001906B
:1020A00001982046FEF7CEFE0120CDE9030502206F
:1020B000059002A920460296FEF7BCFD06B070BD51
:1020C00010B592B040F2F00042F600420021C2F298
:1020D0000000C4F2010240F69F731191CDE90F1187
:1020E000CDE90D11CDE90B11CDE90911CDE90711AC
:1020F000CDE90511CDE90311CDE90111C0E90021B8
:10210000C0E90213C0E904118161FFF731FD002825
:1021100018BFFEF76FF940F2F000C2F2000010A9FC
:10212000FFF730FB002818BFFEF764F940F2F0001B
:102130000024C2F2000009A900220F94CDE90D4449
:10214000CDE90B44CDE90944FFF73EFC002818BF58
:10215000FEF750F94FF40050069040F2F000C2F242
:10216000000001A90594CDE90344CDE90144089498
:10217000FFF7E2FA002818BFFEF73CF912B010BDD5
:1021800080B540F2381043F60001C2F20000C4F2FC
:10219000010100234FF00C0C4FF4E13280E80E00F7
:1021A000C0E90333C0E905C3C361FFF787FD002819
:1021B00008BF80BDBDE88040FEF71CB9FEE7000007
:1021C000FEE700007047000010B540F27004C2F254
:1021D00000042078082800F2AD80DFE800F00573E5
:1021E000234B11819B65A70040F60040C4F201001B
:1021F00040F6F3410022FEF725FE01209BE000BFE0
:102200000020C4F202000168890740F19580022194
:10221000416040F27C00C2F20000FEF729FB05207D
:1022200089E000BF41F2040140F20800CEF2000153
:10223000C2F200000A6800684DF68363C4F21B33E3
:10224000A0FB0303980C00EB800043000868801A91
:10225000984269D20868801A984265D20868801A44
:10226000984261D20868801A98424FF00300EDD37B
:1022700061E000BFA07842F2AC41C0F60001085C0A
:1022800042F2344100F01F00C4F201010860002056
:10229000214641F8080F40F27C00C2F20000012202
:1022A000FEF752FA042046E06078013060706078F2
:1022B00008284FF000003ED36070A0800120E0703D
:1022C000082038E060781DA131F8101040F6004079
:1022D000C4F201000122FEF7B5FD02202BE000BF91
:1022E000A068A188627840F2801CC2F2000C0CF851
:1022F0000120A27842F2AC43C0F600039A5C0CEBDA
:1023000001035A70020A9A70D870081DA080062036
:1023100011E000BFA0780130A070A078082803D396
:102320000020A070072006E0032004E0E0780028E9
:1023300018BF10BD0020207010BD00BF80004000FD
:102340002000100001000200000400087047000097
:10235000FEF784BD7047000080B540F2F000C2F285
:102360000000FFF789FABDE88040FFF72DBF0000AD
:10237000FEE7000094B0FEF77FFD0AAC201D24218B
:10238000FDF738FF02200A9001200E901020002552
:102390000F9020460495CDE902551195FEF7B2FF46
:1023A00020B1EFF3108072B6FEE700BF0F20CDE939
:1023B000050505A80021CDE907550995FEF79CFE06
:1023C00020B1EFF3108072B6FEE700BF022001904B
:1023D0004FF0000801A8CDF80C80FEF70BFE28B1E5
:1023E000EFF3108072B600BFFEE700BFFFF72AFED2
:1023F000FFF70EFEFFF7E0FDFFF762FEFFF7C0FEFE
:102400004EF6FC50CEF20000016841F08071016090
:1024100041F20000CEF20000C0F80480016841F0F3
:10242000010101600B20FEF781FD40F2F000C2F2D5
:102430000000FFF7E7F940F2700740F2381442F26B
:10244000B44540F28016C2F20007C2F20004C0F6A2
:102450000005C2F2000600BFF8780028FCD0204634
:10246000294602224FF0FF33FFF7DAFC20463146BF
:102470004FF480724FF0FF33FFF7D2FC87F80380F0
:10248000EAE7000000000000000001020304060764
:102490000809000000000102030401020203040510
:1024A000060708090A0B0C0D0E0F1010000102039D
:1024B00004050607FFAA0000D82400080000002039
:1024C0001000000050010008E8240008100000205F
:1024D00078080000700100080100000010000000F2
:0824E00000127A000000000068
:04000005080000ED02
:00000001FF
